:100000000C9400010C9421010C9421010C94210109
:100010000C9421010C9421010C9421010C942101D8
:100020000C9421010C9421010C9421010C942101C8
:100030000C9421010C9421010C9421010C942101B8
:100040000C9421010C9421010C9421010C942101A8
:100050000C9421010C9421010C9421010C94210198
:100060000C9421010C9421010C9421010C94210188
:100070000C9421010C9421010C9421010C94210178
:100080000C9421010C9421010C9421010C94210168
:100090000C9421010C9421010C9421010C94210158
:1000A0000C9421010C9421010C9421010C94210148
:1000B0000C9421010C9421010C9421010C94210138
:1000C0000C9421010C9421010C9421010C94210128
:1000D0000C9421010C9421010C9421010C94210118
:1000E0000C9421010C9421010C9421010C94210108
:1000F0000C9421010C9421010C9421010C942101F8
:100100000C9421010C9421010C9421010C942101E7
:100110000C9421010C9421010C9421010C942101D7
:100120000C9421010C9421010C9421010C942101C7
:100130000C9421010C9421010C9421010C942101B7
:100140000C9421010C9421010C9421010C942101A7
:100150000C9421010C9421010C9421010C94210197
:100160000C9421010C9421010C9421010C94E501C3
:100170000C940D020C9421010C9421010C9421018A
:100180000C9421010C9421010C9421010C94210167
:100190000C9421010C9421010C9421010C94210157
:1001A0000C9421010C9421010C9421010C94210147
:1001B0000C9421010C9421010C9421010C94210137
:1001C0000C9421010C9421010C9421010C94210127
:1001D0000C9421010C9421010C9421010C94210117
:1001E0000C9421010C9421010C9421010C94210107
:1001F0000C9421010C9421010C9421010C94B50163
:1002000011241FBECFEFCDBFDFE5DEBF00E00CBF86
:1002100010E2A0E0B0E2E8E6FBE000E00BBF02C0C5
:1002200007900D92A432B107D9F721E2A4E2B0E21F
:1002300001C01D92A337B207E1F70E947A020C9425
:10024000B2050C940000E0E5F0E08BEC8283808145
:1002500088608083818183FFFDCFE0E5F0E082EC60
:100260008583808180618083818184FFFDCF88EDDB
:1002700084BF84E080934000E0E5F0E080818E7FE1
:10028000808380818D7F80830895F8941092A408E4
:100290001092B4081092A409A0EBB9E014961C9235
:1002A00014971092A40A1092B40A1092A40BE0E6DC
:1002B000F6E088E1828B868B90E89583918390E4C9
:1002C000928390E1908B918B948B95EF16969C93F3
:1002D000169790EB17969C93179714968C931497F8
:1002E00080E213968C93E0EAF0E08281836082835F
:1002F00008952091722191E0920F809171219A3F8F
:1003000010F097E0920F891710F0891B089586501E
:10031000891B08950F931F93CF93DF93D82F00EB82
:1003200019E0C1E202C0F801C3830E947901882369
:10033000D1F380917221E82FF0E0E958FF4DD0838E
:100340008F5F8A3F08F080E0E0EAF0E09281292F99
:100350002E7F22838093722181E28093B30992835E
:10036000DF91CF911F910F910895CF93C82F0E94D5
:100370008A01CE3319F41092242023C0CC33E1F447
:10038000C09124208C2F82958F70282F30E02A3046
:10039000310514F4805D01C0895C0E948A01CF7030
:1003A0008C2F90E00A971CF480E38C0F02C087E347
:1003B0008C0F0E948A0105C080912420C827C09319
:1003C000242080E090E0CF9108951F920F920FB605
:1003D0000F9211240BB60F928F939F93EF93FF937D
:1003E00080917620E82FF0E09091B009EB5DFF4D11
:1003F00090838F5F803508F080E09091752089139D
:1004000080937620FF91EF919F918F910F900BBE7B
:100410000F900FBE0F901F9018951F920F920FB65E
:100420000F9211240BB60F922F938F939F93EF93FC
:10043000FF938091712190917221891769F0E82FC3
:10044000F0E0E958FF4D20812093B0098F5F8A3F8B
:1004500008F080E0891304C080E28093B309892FFB
:1004600080937121FF91EF919F918F912F910F9028
:100470000BBE0F900FBE0F901F901895E0E8F6E0AE
:100480008BE0808381E08583A0EABAE088E114965E
:100490008C93149780EC15968C93159780E11796A2
:1004A0008C93179791E116969C93818B828B838B0B
:1004B000848B08958093A00AE0EAFAE0818186FFA8
:1004C000FDCFE0EAFAE08181806481838081089534
:1004D0001F93CF93DF93C0E8D6E011E01E838068BE
:1004E0000E945A0280E00E945A021D83DF91CF9140
:1004F0001F910895F8940E9423010E9445010E94D3
:100500003E0278942FEF8BE49DE121508040904093
:10051000E1F700C000008FE00E946802C82F20E0D1
:1005200030E24BE050E061E070E08EE090E20E944B
:10053000BC021F92CF938AE190E29F938F9380E059
:1005400090E29F938F930E94AC020F900F900F90B8
:100550000F900F900F90FFCFCF93DF93CDB7DEB703
:10056000AE01465F5F4F688579858E819F810E94CD
:10057000FE02DF91CF9108958F929F92AF92BF922A
:10058000CF92DF92EF92FF920F931F93CF93DF935F
:100590005B014A017901D90113962C9121FF1DC0FD
:1005A000C0E0D0E0C815D905D9F08C016C01CA0CA7
:1005B000DB1CC8010C151D0571F00F5F1F4FD70123
:1005C0001896ED91FC911997B701DC018C91199562
:1005D000892B79F305C02196E5CF80E090E001C03A
:1005E000CE01DF91CF911F910F91FF90EF90DF909F
:1005F000CF90BF90AF909F908F9008952F923F9291
:100600004F925F926F927F928F929F92AF92BF9222
:10061000CF92DF92EF92FF920F931F93CF93DF93CE
:10062000CDB7DEB72B97CDBFDEBF6C017B018A0152
:10063000FC0116821782838181FFCCC1CE01019615
:100640003C01F6019381F70193FD859193FF819120
:100650007F01882309F4BAC1853239F493FD85916D
:1006600093FF81917F01853229F4B60190E00E94C9
:100670001805E7CF912C212C312CFFE1F315D8F090
:100680008B3279F038F4803279F08332A1F4232D63
:1006900020611DC08D3261F0803369F4232D21600B
:1006A00016C0832D8260382EE32DE4603E2E2AC0D2
:1006B000F32DF8601DC037FC2DC020ED280F2A3027
:1006C00040F08E32B9F436FC81C1232D2064322EE5
:1006D00019C036FE06C08AE0989E200D1124922E85
:1006E00011C0EAE02E9E200D1124222EF32DF0627F
:1006F0003F2E08C08C3621F4832D8068382E02C02E
:10070000883641F4F70193FD859193FF81917F0134
:100710008111B3CF982F9F7D9554933028F40C5FAF
:100720001F4F9FE399830DC0833631F0833771F0FB
:10073000833509F059C021C0F801808189830E5F9B
:100740001F4F88248394912C530113C02801F2E099
:100750004F0E511CF801A080B18036FE03C0692DF8
:1007600070E002C06FEF7FEFC5010E940D054C01E4
:100770008201F32DFF773F2E16C0280122E0420EA2
:10078000511CF801A080B18036FE03C0692D70E0D5
:1007900002C06FEF7FEFC5010E9402054C01F32DEF
:1007A000F0683F2E820133FC1BC0822D90E088163A
:1007B0009906B0F4B60180E290E00E9418052A94F0
:1007C000F4CFF50137FC859137FE81915F01B601C9
:1007D00090E00E94180521102A9421E0821A9108C5
:1007E0008114910471F7E8C0843611F0893641F51F
:1007F000F80137FE07C060817181828193810C5FAF
:100800001F4F08C060817181072E000C880B990B67
:100810000E5F1F4FF32DFF763F2E97FF09C0909577
:100820008095709561957F4F8F4F9F4FF0683F2E59
:100830002AE030E0A3010E945405882E861845C0A6
:10084000853731F4232D2F7EB22E2AE030E025C0EB
:10085000932D997FB92E8F36C1F018F4883579F031
:10086000B5C0803719F0883721F0B0C0E92FE061BA
:10087000BE2EB4FE0DC0FB2DF460BF2E09C034FEA9
:100880000AC0292F2660B22E06C028E030E005C03D
:1008900020E130E002C020E132E0F801B7FE07C0FD
:1008A00060817181828193810C5F1F4F06C06081DE
:1008B000718180E090E00E5F1F4FA3010E945405FC
:1008C000882E8618FB2DFF773F2E36FE0DC0232D78
:1008D0002E7FA22E891458F434FE0BC032FC09C0BE
:1008E000832D8E7EA82E05C0B82CA32C03C0B82C57
:1008F00001C0B92CA4FE0FC0FE01E80DF11D8081DE
:10090000803321F49A2D997EA92E09C0A2FE06C03B
:10091000B394B39404C08A2D867809F0B394A3FCF1
:1009200011C0A0FE06C0B21488F4280C922C9B18AB
:100930000EC0B21460F4B60180E290E00E94180587
:10094000B394F7CFB21418F42B1802C0982C212CB2
:10095000A4FE10C0B60180E390E00E941805A2FE3C
:1009600017C0A1FC03C088E790E002C088E590E0D2
:10097000B6010CC08A2D867859F0A1FE02C08BE228
:1009800001C080E2A7FC8DE2B60190E00E9418054C
:10099000891438F4B60180E390E00E9418059A9417
:1009A000F7CF8A94F301E80DF11D8081B60190E044
:1009B0000E9418058110F5CF222009F442CEB6011D
:1009C00080E290E00E9418052A94F6CFF601868115
:1009D000978102C08FEF9FEF2B96CDBFDEBFDF91D7
:1009E000CF911F910F91FF90EF90DF90CF90BF902C
:1009F000AF909F908F907F906F905F904F903F90BF
:100A00002F900895FC010590615070400110D8F7B7
:100A1000809590958E0F9F1F0895FC016150704046
:100A200001900110D8F7809590958E0F9F1F089523
:100A30000F931F93CF93DF93FB01238121FD03C00D
:100A40008FEF9FEF2CC022FF16C046815781248173
:100A500035814217530744F4A081B1819D012F5F76
:100A60003F4F208331838C93268137812F5F3F4F07
:100A70002683378314C08B01EC01FB010084F185D0
:100A8000E02D1995892BE1F6D80116968D919C9150
:100A90001797019616968D939C931797CE01DF9129
:100AA000CF911F910F910895FA01AA27283051F193
:100AB000203181F1E8946F936E7F6E5F7F4F8F4F8F
:100AC0009F4FAF4FB1E03ED0B4E03CD0670F781FEE
:100AD000891F9A1FA11D680F791F8A1F911DA11DD3
:100AE0006A0F711D811D911DA11D20D009F468940C
:100AF0003F912AE0269F11243019305D3193DEF6B4
:100B0000CF010895462F4770405D4193B3E00FD069
:100B1000C9F7F6CF462F4F70405D4A3318F0495D54
:100B200031FD4052419302D0A9F7EACFB4E0A69537
:100B30009795879577956795BA95C9F70097610559
:100B4000710508959B01AC010A2E069457954795AF
:100B500037952795BA95C9F7620F731F841F951FA4
:080B6000A01D0895F894FFCFD9
:100B68000000000200000000B501000000006865F8
:100B78006C6C6F20776F726C640056616C75653AA7
:040B880020256400C0
:00000001FF
